{
  "transactions": [
    {
      "hash": null,
      "transactionType": "CALL",
      "contractName": null,
      "contractAddress": "0xe7fc028421e9efe4b9713a577b081a0e0d6a1c82",
      "function": "create((uint64,address,bytes,uint64,bytes,bool,uint64,bytes))",
      "arguments": [
        "(1, 0xf39Fd6e51aad88F6F4ce6aB8827279cffFb92266, 0x000000000000000000000000eb762ed11a09e4a394c9c8101f8aeeaf5382ed7400000000000000000000000081295ffa36826dc643cf8cfcbf22e08227b918510000000000000000000000000000000000000000000000000000000000093a8000000000000000000000000000000000000000000000000000000000000000000000000000000000000000000000000000000000000000000000000000000001000000000000000000000000000000000000000000000000000000003b9aca00000000000000000000000000f39fd6e51aad88f6f4ce6ab8827279cfffb92266000000000000000000000000f39fd6e51aad88f6f4ce6ab8827279cfffb92266000000000000000000000000f39fd6e51aad88f6f4ce6ab8827279cfffb92266000000000000000000000000f39fd6e51aad88f6f4ce6ab8827279cfffb92266000000000000000000000000f39fd6e51aad88f6f4ce6ab8827279cfffb92266, 0, 0x0000000000000000000000000000000000000000000000000000000000000020000000000000000000000000f39fd6e51aad88f6f4ce6ab8827279cfffb922660000000000000000000000000000000000000000000000000000000000000000000000000000000000000000f39fd6e51aad88f6f4ce6ab8827279cfffb9226600000000000000000000000000000000000000000000000000000000000000a000000000000000000000000000000000000000000000000000000000000000e00000000000000000000000000000000000000000000000000000000000000001000000000000000000000000f39fd6e51aad88f6f4ce6ab8827279cfffb922660000000000000000000000000000000000000000000000000000000000000001000000000000000000000000f39fd6e51aad88f6f4ce6ab8827279cfffb92266, true, 1, 0x000000000000000000000000000000000000000000000000000000000000000100000000000000000000000000000000000000000000000000000000000151800000000000000000000000000000000000000000000000000000000000000003)"
      ],
      "transaction": {
        "from": "0x1804c8ab1f12e6bbf3894d4083f33e07309d1f38",
        "to": "0xe7fc028421e9efe4b9713a577b081a0e0d6a1c82",
        "gas": "0x1a22d0",
        "value": "0x0",
        "input": "0xc48927e400000000000000000000000000000000000000000000000000000000000000200000000000000000000000000000000000000000000000000000000000000001000000000000000000000000f39fd6e51aad88f6f4ce6ab8827279cfffb922660000000000000000000000000000000000000000000000000000000000000100000000000000000000000000000000000000000000000000000000000000000000000000000000000000000000000000000000000000000000000000000002800000000000000000000000000000000000000000000000000000000000000001000000000000000000000000000000000000000000000000000000000000000100000000000000000000000000000000000000000000000000000000000003e00000000000000000000000000000000000000000000000000000000000000160000000000000000000000000eb762ed11a09e4a394c9c8101f8aeeaf5382ed7400000000000000000000000081295ffa36826dc643cf8cfcbf22e08227b918510000000000000000000000000000000000000000000000000000000000093a8000000000000000000000000000000000000000000000000000000000000000000000000000000000000000000000000000000000000000000000000000000001000000000000000000000000000000000000000000000000000000003b9aca00000000000000000000000000f39fd6e51aad88f6f4ce6ab8827279cfffb92266000000000000000000000000f39fd6e51aad88f6f4ce6ab8827279cfffb92266000000000000000000000000f39fd6e51aad88f6f4ce6ab8827279cfffb92266000000000000000000000000f39fd6e51aad88f6f4ce6ab8827279cfffb92266000000000000000000000000f39fd6e51aad88f6f4ce6ab8827279cfffb9226600000000000000000000000000000000000000000000000000000000000001400000000000000000000000000000000000000000000000000000000000000020000000000000000000000000f39fd6e51aad88f6f4ce6ab8827279cfffb922660000000000000000000000000000000000000000000000000000000000000000000000000000000000000000f39fd6e51aad88f6f4ce6ab8827279cfffb9226600000000000000000000000000000000000000000000000000000000000000a000000000000000000000000000000000000000000000000000000000000000e00000000000000000000000000000000000000000000000000000000000000001000000000000000000000000f39fd6e51aad88f6f4ce6ab8827279cfffb922660000000000000000000000000000000000000000000000000000000000000001000000000000000000000000f39fd6e51aad88f6f4ce6ab8827279cfffb922660000000000000000000000000000000000000000000000000000000000000060000000000000000000000000000000000000000000000000000000000000000100000000000000000000000000000000000000000000000000000000000151800000000000000000000000000000000000000000000000000000000000000003",
        "nonce": "0x2",
        "chainId": "0xaa36a7"
      },
      "additionalContracts": [
        {
          "transactionType": "CREATE2",
          "address": "0x22f22e9c5f92bd25856751548c02db19926789f5",
          "initCode": "0x604060a0815234610204576106098038038061001a81610209565b92833981019082818303126102045780516001600160a01b0392838216918281036102045760208481015190946001600160401b038211610204570182601f820112156102045780519061007561007083610244565b610209565b9382855286838301011161020457859060005b8381106101f057505060009184010152803b156101d8577f360894a13ba1a3210667c828492db98dca3e2076cc3735a920a3ca505d382bbc80546001600160a01b03199081168517909155927fbc7cd75a20ee27fd9adebab32041f755214dbc6bffa90cc0225b39da2e5c2d3b600080a2815191849083156101cf5761013493600092839201845af43d156101c7573d9161012561007084610244565b9283523d60008785013e61025f565b505b336080527f7e644d79422f17c01e4894b5f4f588d331ebfa28653d42ae832dc59e38c9798f847fb53127684a568b3173ae13b9f8a6016e243e63b6e8ee1178d6a717850b5d610394855494825191861682523390820152a133156101af5716331790555161034690816102c38239608051816101030152f35b8351633173bdd160e11b815260006004820152602490fd5b60609161025f565b50505050610136565b8551634c9c8ce360e01b815260048101849052602490fd5b818101830151868201840152879201610088565b600080fd5b6040519190601f01601f191682016001600160401b0381118382101761022e57604052565b634e487b7160e01b600052604160045260246000fd5b6001600160401b03811161022e57601f01601f191660200190565b90610286575080511561027457805190602001fd5b604051630a12f52160e11b8152600490fd5b815115806102b9575b610297575090565b604051639996b31560e01b81526001600160a01b039091166004820152602490fd5b50803b1561028f56fe60806040526004361061020d576000803560e01c634f1ef28614610023575061020d565b34610097576040366003190112610097576004356001600160a01b0381168103610093576024359067ffffffffffffffff9081831161008f573660238401121561008f57826004013591821161008f57366024838501011161008f57602461008c9301906100f7565b80f35b8380fd5b5080fd5b80fd5b634e487b7160e01b600052604160045260246000fd5b6040519190601f01601f1916820167ffffffffffffffff8111838210176100d657604052565b61009a565b67ffffffffffffffff81116100d657601f01601f191660200190565b916001600160a01b03907f0000000000000000000000000000000000000000000000000000000000000000821633036101fb5761013b610136826100db565b6100b0565b9281845236828201116101f657816000926020928387013784010152823b156101dc5782167f360894a13ba1a3210667c828492db98dca3e2076cc3735a920a3ca505d382bbc816bffffffffffffffffffffffff60a01b8254161790557fbc7cd75a20ee27fd9adebab32041f755214dbc6bffa90cc0225b39da2e5c2d3b600080a28051156101d0576101cd91610272565b50565b50506101da610259565b565b604051634c9c8ce360e01b81529083166004820152602490fd5b600080fd5b6040516334ad5dbb60e21b8152600490fd5b7f360894a13ba1a3210667c828492db98dca3e2076cc3735a920a3ca505d382bbc54600090819081906001600160a01b0316368280378136915af43d82803e15610255573d90f35b3d90fd5b3461026057565b60405163b398979f60e01b8152600490fd5b6000806102a693602081519101845af43d156102a9573d91610296610136846100db565b9283523d6000602085013e6102ad565b90565b6060915b906102d457508051156102c257805190602001fd5b604051630a12f52160e11b8152600490fd5b81511580610307575b6102e5575090565b604051639996b31560e01b81526001600160a01b039091166004820152602490fd5b50803b156102dd56fea2646970667358221220e5c18f58a04218f912ea9f96de2e9f1b005db1c63ed03f594dd8fa5fd75fea9a64736f6c63430008190033000000000000000000000000586ccdcdc81f52dbe224d03caf2a790b6d4379b9000000000000000000000000000000000000000000000000000000000000004000000000000000000000000000000000000000000000000000000000000001e457ec83cc0000000000000000000000000000000000000000000000000000000000000001000000000000000000000000f39fd6e51aad88f6f4ce6ab8827279cfffb9226600000000000000000000000000000000000000000000000000000000000000600000000000000000000000000000000000000000000000000000000000000160000000000000000000000000eb762ed11a09e4a394c9c8101f8aeeaf5382ed7400000000000000000000000081295ffa36826dc643cf8cfcbf22e08227b918510000000000000000000000000000000000000000000000000000000000093a8000000000000000000000000000000000000000000000000000000000000000000000000000000000000000000000000000000000000000000000000000000001000000000000000000000000000000000000000000000000000000003b9aca00000000000000000000000000f39fd6e51aad88f6f4ce6ab8827279cfffb92266000000000000000000000000f39fd6e51aad88f6f4ce6ab8827279cfffb92266000000000000000000000000f39fd6e51aad88f6f4ce6ab8827279cfffb92266000000000000000000000000f39fd6e51aad88f6f4ce6ab8827279cfffb92266000000000000000000000000f39fd6e51aad88f6f4ce6ab8827279cfffb9226600000000000000000000000000000000000000000000000000000000"
        },
        {
          "transactionType": "CREATE2",
          "address": "0xa236751887c61f1b501b0ff6664c641dc83497e5",
          "initCode": "0x3d602d80600a3d3981f3363d3d373d3d3d363d7345195a5da7c896ffbe709f65076a956990aeaac55af43d82803e903d91602b57fd5bf3"
        },
        {
          "transactionType": "CREATE2",
          "address": "0xf361c41a2e94f4e5b20ef85b18964b2e0daa2b9b",
          "initCode": "0x3d602d80600a3d3981f3363d3d373d3d3d363d73ef5e3833c1fe43e4a8eca9411d204b839508e9b85af43d82803e903d91602b57fd5bf3"
        }
      ],
      "isFixedGasLimit": false
    }
  ],
  "receipts": [],
  "libraries": [],
  "pending": [],
  "returns": {},
  "timestamp": 1732178732,
  "chain": 11155111,
  "commit": "39a960c"
}