{
  "transactions": [
    {
      "hash": "0xcd2b8af6aeacfc53477780dac1bc9b38a3029e7eea28c74e08c2b3a64bbb580d",
      "transactionType": "CREATE",
      "contractName": "iBTC_GlobalReceiver",
      "contractAddress": "0xdba544989808632cf36846842c86283405989b51",
      "function": null,
      "arguments": null,
      "transaction": {
        "from": "0x8ae0f53a071f5036910509fe48ebb8b3558fa9fd",
        "gas": "0x7e0ba",
        "value": "0x0",
        "input": "0x60808060405234601557610638908161001a8239f35b5f80fdfe60406080815260049081361015610014575f80fd5b5f3560e01c9182632962434614610329578263485cc9551461015057508163715018a6146100e95781638da5cb5b146100b6578163d8dfeb4514610090575063f2fde38b14610061575f80fd5b3461008c57602036600319011261008c5761008a61007d6104e2565b610085610569565b6104f8565b005b5f80fd5b3461008c575f36600319011261008c575f5490516001600160a01b039091168152602090f35b3461008c575f36600319011261008c575f805160206105e38339815191525490516001600160a01b039091168152602090f35b3461008c575f36600319011261008c57610101610569565b5f805160206105e383398151915280546001600160a01b031981169091555f906001600160a01b03167f8be0079c531659141344cd1fd0a4f28419497f9722a3daafe3b4186f6b6457e08280a3005b3461008c578160031936011261008c576101686104e2565b6001600160a01b03916024358381169182820361008c577ff0c57e16840df040f15088dc2f81fe391c3923bec73e23a9662efc9c229c6a009485549460ff86891c16159567ffffffffffffffff811680159081610321575b6001149081610317575b15908161030e575b506102fe5767ffffffffffffffff1981166001178855866102df575b50169283156102a5571561026a5750610211906102096105a1565b6100856105a1565b6bffffffffffffffffffffffff60a01b5f5416175f5561022d57005b805468ff00000000000000001916905551600181527fc7f505b2f371ae2175ee4913f4499e1f2633a7b5936321eed1cdaeb6115181d290602090a1005b606490602087519162461bcd60e51b83528201526015602482015274496e76616c6964206f776e6572206164647265737360581b6044820152fd5b865162461bcd60e51b81526020818401526014602482015273496e76616c69642069425443206164647265737360601b6044820152606490fd5b68ffffffffffffffffff191668010000000000000001178755886101ee565b885163f92ee8a960e01b81528490fd5b9050158a6101d2565b303b1591506101ca565b8891506101c0565b903461008c578060031936011261008c576103426104e2565b906024928335610350610569565b6001600160a01b039384169384156104d25781156104c2575f5484516370a0823160e01b815230818601526020949183169085818a81855afa9081156104b8579085915f91610471575b50106104625785518581019063a9059cbb60e01b8252888a820152856044820152604481526080810181811067ffffffffffffffff8211176104505788525186915f919082855af115610446575f513d61043d5750803b155b610428575050907fc6e75038d2d82369ec020d815936083a82f4b880658988b488d9b7ecbadbca3592915f54169351908152a3005b8551635274afe760e01b815291820152869150fd5b600114156103f3565b85513d5f823e3d90fd5b8a604186634e487b7160e01b5f52525ffd5b508451631e9acf1760e31b8152fd5b915050853d87116104b1575b601f8101601f1916820167ffffffffffffffff81118382101761045057879183918a528101031261008c578490518a61039a565b503d61047d565b87513d5f823e3d90fd5b8351631f2a200560e01b81528390fd5b8351635bb9885f60e11b81528390fd5b600435906001600160a01b038216820361008c57565b6001600160a01b03908116908115610551575f805160206105e383398151915280546001600160a01b031981168417909155167f8be0079c531659141344cd1fd0a4f28419497f9722a3daafe3b4186f6b6457e05f80a3565b604051631e4fbdf760e01b81525f6004820152602490fd5b5f805160206105e3833981519152546001600160a01b0316330361058957565b60405163118cdaa760e01b8152336004820152602490fd5b60ff7ff0c57e16840df040f15088dc2f81fe391c3923bec73e23a9662efc9c229c6a005460401c16156105d057565b604051631afcd79f60e31b8152600490fdfe9016d09d72d40fdae2fd8ceac6b6234c7706214fd39c1cd1e609a0528c199300a264697066735822122053d6537adfd7097c6f0e1c8489778931ac5d00c1d0cccfe63817fb34ef174bfd64736f6c63430008190033",
        "nonce": "0x24",
        "chainId": "0xaa36a7"
      },
      "additionalContracts": [],
      "isFixedGasLimit": false
    },
    {
      "hash": "0xcd80d5341d4c9b2789cd2e56f0cc49ca0a1e277cb489110f6e2204c3af473ee7",
      "transactionType": "CALL",
      "contractName": "iBTC_GlobalReceiver",
      "contractAddress": "0xdba544989808632cf36846842c86283405989b51",
      "function": "initialize(address,address)",
      "arguments": [
        "0xeb762Ed11a09E4A394C9c8101f8aeeaf5382ED74",
        "0x8Ae0F53A071F5036910509FE48eBB8b3558fa9fD"
      ],
      "transaction": {
        "from": "0x8ae0f53a071f5036910509fe48ebb8b3558fa9fd",
        "to": "0xdba544989808632cf36846842c86283405989b51",
        "gas": "0x1f06c",
        "value": "0x0",
        "input": "0x485cc955000000000000000000000000eb762ed11a09e4a394c9c8101f8aeeaf5382ed740000000000000000000000008ae0f53a071f5036910509fe48ebb8b3558fa9fd",
        "nonce": "0x25",
        "chainId": "0xaa36a7"
      },
      "additionalContracts": [],
      "isFixedGasLimit": false
    }
  ],
  "receipts": [
    {
      "status": "0x1",
      "cumulativeGasUsed": "0x10a4373",
      "logs": [],
      "logsBloom": "0x00000000000000000000000000000000000000000000000000000000000000000000000000000000000000000000000000000000000000000000000000000000000000000000000000000000000000000000000000000000000000000000000000000000000000000000000000000000000000000000000000000000000000000000000000000000000000000000000000000000000000000000000000000000000000000000000000000000000000000000000000000000000000000000000000000000000000000000000000000000000000000000000000000000000000000000000000000000000000000000000000000000000000000000000000000000",
      "type": "0x2",
      "transactionHash": "0xcd2b8af6aeacfc53477780dac1bc9b38a3029e7eea28c74e08c2b3a64bbb580d",
      "transactionIndex": "0x97",
      "blockHash": "0x165884b9e215de1fc8983ebb539c0a67ecf15b6f87b95cea237ab5867cf6dddb",
      "blockNumber": "0x718276",
      "gasUsed": "0x60f54",
      "effectiveGasPrice": "0xed38840a0",
      "from": "0x8ae0f53a071f5036910509fe48ebb8b3558fa9fd",
      "to": null,
      "contractAddress": "0xdba544989808632cf36846842c86283405989b51"
    },
    {
      "status": "0x1",
      "cumulativeGasUsed": "0x10baada",
      "logs": [
        {
          "address": "0xdba544989808632cf36846842c86283405989b51",
          "topics": [
            "0x8be0079c531659141344cd1fd0a4f28419497f9722a3daafe3b4186f6b6457e0",
            "0x0000000000000000000000000000000000000000000000000000000000000000",
            "0x0000000000000000000000008ae0f53a071f5036910509fe48ebb8b3558fa9fd"
          ],
          "data": "0x",
          "blockHash": "0x165884b9e215de1fc8983ebb539c0a67ecf15b6f87b95cea237ab5867cf6dddb",
          "blockNumber": "0x718276",
          "transactionHash": "0xcd80d5341d4c9b2789cd2e56f0cc49ca0a1e277cb489110f6e2204c3af473ee7",
          "transactionIndex": "0x98",
          "logIndex": "0xba",
          "removed": false
        },
        {
          "address": "0xdba544989808632cf36846842c86283405989b51",
          "topics": [
            "0xc7f505b2f371ae2175ee4913f4499e1f2633a7b5936321eed1cdaeb6115181d2"
          ],
          "data": "0x0000000000000000000000000000000000000000000000000000000000000001",
          "blockHash": "0x165884b9e215de1fc8983ebb539c0a67ecf15b6f87b95cea237ab5867cf6dddb",
          "blockNumber": "0x718276",
          "transactionHash": "0xcd80d5341d4c9b2789cd2e56f0cc49ca0a1e277cb489110f6e2204c3af473ee7",
          "transactionIndex": "0x98",
          "logIndex": "0xbb",
          "removed": false
        }
      ],
      "logsBloom": "0x00000000000000200000000000000000000000000000000000800000000000000000000000000000000000000000000000000000000000000000000000000000000000000000000000020000000000000001000000000000000000000000000000000000020000000000000000000800000000000000000800000000000000400000000000000000000800000000000000000000000080000000000000000000000000000000000000000000000000000000000000000000000000000008000000000000000000000000000000000000000000000004000000000000000020000000000000000000000000004000000000000000000000000000000000800000",
      "type": "0x2",
      "transactionHash": "0xcd80d5341d4c9b2789cd2e56f0cc49ca0a1e277cb489110f6e2204c3af473ee7",
      "transactionIndex": "0x98",
      "blockHash": "0x165884b9e215de1fc8983ebb539c0a67ecf15b6f87b95cea237ab5867cf6dddb",
      "blockNumber": "0x718276",
      "gasUsed": "0x16767",
      "effectiveGasPrice": "0xed38840a0",
      "from": "0x8ae0f53a071f5036910509fe48ebb8b3558fa9fd",
      "to": "0xdba544989808632cf36846842c86283405989b51",
      "contractAddress": null
    }
  ],
  "libraries": [],
  "pending": [],
  "returns": {},
  "timestamp": 1736241526,
  "chain": 11155111,
  "commit": "de7c216"
}