{
  "transactions": [
    {
      "hash": "0xce960b657a20859230d19d1e0e8db3274a902134c28766c311342bed31c7af77",
      "transactionType": "CREATE",
      "contractName": null,
      "contractAddress": "0x056882fb0afe0ccf42357d32715e04838f6f594a",
      "function": null,
      "arguments": null,
      "transaction": {
        "from": "0xf39fd6e51aad88f6f4ce6ab8827279cfffb92266",
        "gas": "0x1adf4a",
        "value": "0x0",
        "input": "0x60a034610416576001600160401b0390601f601f1961196c3881900383810183168501919086831186841017610400578086926060946040528339810103126104165782516001600160a01b038082169390929091849003610416576020916040838701519601519661007061041b565b91601783527f69425443205769746864726177616c2052657175657374000000000000000000858401526100a261041b565b600781526634a12a2196aba960c91b86820152835194838611610400576000958654956001968781811c911680156103f6575b8a8210146103e257908186849311610394575b50899086831160011461033857899261032d575b5050600019600383901b1c191690861b1786555b81519384116103195784548581811c9116801561030f575b888210146102fb5790818486959493116102a9575b508792841160011461024d57508592610242575b5050600019600383901b1c191690821b1790555b331561022a57600654903360018060a01b03198316176006557f8be0079c531659141344cd1fd0a4f28419497f9722a3daafe3b4186f6b6457e0604051943393169180a3848411156101e9575050608052600855600955604051611531908161043b82396080518181816102ce0152818161067001528181610a0d0152610c9e0152f35b62461bcd60e51b82526004820152601960248201527f496e76616c6964207769746864726177616c206c696d69747300000000000000604482015260649150fd5b60249060405190631e4fbdf760e01b82526004820152fd5b015190503880610151565b85875287872086959093929116875b89828210610293575050841161027a575b505050811b019055610165565b015160001960f88460031b161c1916905538808061026d565b838501518655889790950194938401930161025c565b90919293508587528787208480870160051c8201928a88106102f2575b9187968992969594930160051c01915b8281106102e457505061013d565b8981558796508891016102d6565b925081926102c6565b634e487b7160e01b87526022600452602487fd5b90607f1690610128565b634e487b7160e01b86526041600452602486fd5b0151905038806100fc565b9084899416918a80528b8b20928b5b8d82821061037e5750508411610365575b505050811b018655610110565b015160001960f88460031b161c19169055388080610358565b8385015186558c97909501949384019301610347565b9091508880528989208680850160051c8201928c86106103d9575b918a91869594930160051c01915b8281106103cb5750506100e8565b8b81558594508a91016103bd565b925081926103af565b634e487b7160e01b89526022600452602489fd5b90607f16906100d5565b634e487b7160e01b600052604160045260246000fd5b600080fd5b60408051919082016001600160401b038111838210176104005760405256fe608060408181526004918236101561001657600080fd5b600092833560e01c91826301ffc9a714610f2e5750816306fdde0314610e61578163081812fc14610e25578163095ea7b314610d48578163152fcb0c14610bc757816319e5f02f14610b5057816323b872dd14610b3857816342842e0e14610b0f578163457e1a491461020e5781635e15c7491461096a5781636352211e1461093957816370a08231146108e4578163715018a61461088757816374dc9d1a146106165781638da5cb5b146105ed578163937b2581146105c557816395d89b41146104a8578163a22cb46514610406578163b88d4fde1461037c578163c435791f1461034f578163c87b56dd146102fd578163d8dfeb45146102b9578163e49eb55d1461029a578163e985e9c51461024c578163ef8526f31461022d578163f049db241461020e578163f2fde38b1461017a575063f516440c1461015957600080fd5b346101765781600319360112610176576020906008549051908152f35b5080fd5b90503461020a57602036600319011261020a57610195610fd9565b9061019e611431565b6001600160a01b039182169283156101f4575050600654826bffffffffffffffffffffffff60a01b821617600655167f8be0079c531659141344cd1fd0a4f28419497f9722a3daafe3b4186f6b6457e08380a380f35b51631e4fbdf760e01b8152908101849052602490fd5b8280fd5b5050346101765781600319360112610176576020906009549051908152f35b5050346101765781600319360112610176576020906008549051908152f35b50503461017657806003193601126101765760ff8160209361026c610fd9565b610274610ff4565b6001600160a01b0391821683526005875283832091168252855220549151911615158152f35b5050346101765781600319360112610176576020906007549051908152f35b505034610176578160031936011261017657517f00000000000000000000000000000000000000000000000000000000000000006001600160a01b03168152602090f35b8383346101765760203660031901126101765761031d61034b93356113f6565b5081815161032a8161103f565b528051916103378361103f565b825251918291602083526020830190610f99565b0390f35b90503461020a57602036600319011261020a578160209360ff92358152600b855220541690519015158152f35b9190503461020a57608036600319011261020a57610398610fd9565b6103a0610ff4565b846064359467ffffffffffffffff8611610176573660238701121561017657850135946103d86103cf87611093565b95519586611071565b85855236602487830101116101765785610403966024602093018388013785010152604435916112a7565b80f35b9190503461020a578060031936011261020a57610421610fd9565b90602435918215158093036104a4576001600160a01b031692831561048f5750338452600560205280842083855260205280842060ff1981541660ff8416179055519081527f17307eab39ab6107e8899845ad3d59bd9653f200f220920489ca2b5937696c3160203392a380f35b836024925191630b61174360e31b8352820152fd5b8480fd5b8284346105c257806003193601126105c25781519181600192600154938460011c91600186169586156105b8575b60209687851081146105a5578899509688969785829a52918260001461057e575050600114610522575b50505061034b9291610513910385611071565b51928284938452830190610f99565b9190869350600183527fb10e2d527612073b26eecdfd717e6a320cf44b4afac2b0732d9fcbe2b7fa0cf65b828410610566575050508201018161051361034b610500565b8054848a01860152889550879490930192810161054d565b60ff19168782015293151560051b86019093019350849250610513915061034b9050610500565b634e487b7160e01b835260228a52602483fd5b92607f16926104d6565b80fd5b90503461020a57602036600319011261020a576020928291358152600a845220549051908152f35b50503461017657816003193601126101765760065490516001600160a01b039091168152602090f35b9190503461020a576020806003193601126108835782359060095482106108415760085482116107ff5782516323b872dd60e01b81523381860152306024820152604481018390526001600160a01b03949082816064818a7f00000000000000000000000000000000000000000000000000000000000000008b165af19081156107f557906106ac9188916107c8575b506110c7565b6001600754019485600755858752600a8352838588205533156107b15785875260028352848720541685811515918261077e575b33808a5260038652878a2080546001019055828a5260028652878a2080546001600160a01b03191682179055907fddf252ad1be2c89b69c2b068fc378daa952ba7f163c4a11628f55a4df523b3ef8a80a46107675750825193845283015233917f08263e8fdc674a1c0fc51ecd787c1014329894783f7660744fa70021aecc511b9190a280f35b83516339e3563760e11b8152908101869052602490fd5b600082815260046020526040902080546001600160a01b03191690558089526003855286892080546000190190556106e0565b8451633250574960e11b8152808301889052602490fd5b6107e89150843d86116107ee575b6107e08183611071565b8101906110af565b386106a6565b503d6107d6565b85513d89823e3d90fd5b8360649184519162461bcd60e51b8352820152601c60248201527f416d6f756e742065786365656473206d6178696d756d206c696d6974000000006044820152fd5b8360649184519162461bcd60e51b8352820152601a60248201527f416d6f756e742062656c6f77206d696e696d756d206c696d69740000000000006044820152fd5b8380fd5b83346105c257806003193601126105c2576108a0611431565b600680546001600160a01b0319811690915581906001600160a01b03167f8be0079c531659141344cd1fd0a4f28419497f9722a3daafe3b4186f6b6457e08280a380f35b8284346105c25760203660031901126105c2576001600160a01b03610907610fd9565b169283156109245750806020938392526003845220549051908152f35b91516322718ad960e21b815291820152602490fd5b8284346105c25760203660031901126105c25750610959602092356113f6565b90516001600160a01b039091168152f35b90503461020a57602091826003193601126108835781359161098a611431565b828552600b845260ff8286205416610ada576109a5836113f6565b838652600a855282862054948515610a9857848752600b8152838720805460ff1916600117905585906109d78661145d565b845163a9059cbb60e01b81526001600160a01b038085169582019586526020860198909852969381908890819060400103818b887f0000000000000000000000000000000000000000000000000000000000000000165af1968715610a8e577f7effe66fd2d9671e7fc0ed5f9e2ab55fec23fb2f726bc2dc15c02e661528672d9697610a69918a91610a7757506110c7565b84519687528601521692a280f35b6107e89150833d85116107ee576107e08183611071565b85513d8a823e3d90fd5b9050606492519162461bcd60e51b8352820152601a60248201527f496e76616c6964207769746864726177616c20726571756573740000000000006044820152fd5b83606492519162461bcd60e51b83528201526011602482015270105b1c9958591e48199a5b985b1a5e9959607a1b6044820152fd5b5050346101765761040390610b233661100a565b91925192610b308461103f565b8584526112a7565b83346105c257610403610b4a3661100a565b91611105565b90503461020a578160031936011261020a5780359060243592610b71611431565b83831115610b8457505060085560095580f35b906020606492519162461bcd60e51b8352820152601960248201527f496e76616c6964207769746864726177616c206c696d697473000000000000006044820152fd5b90503461020a576020908160031936011261088357803591610be7611431565b60019360015b84811115610bf9578680f35b6001600160a01b0380610c0b836113f6565b16151580610d33575b610c3d575b506000198114610c2a578501610bed565b634e487b7160e01b875260118452602487fd5b610c46826113f6565b828952600a855283892054600b8652848a20805460ff19168a1790559190610c6d8461145d565b845163a9059cbb60e01b81526001600160a01b0382168882019081526020810185905287908290819003604001818e7f000000000000000000000000000000000000000000000000000000000000000088165af1908b8215610d28577f7effe66fd2d9671e7fc0ed5f9e2ab55fec23fb2f726bc2dc15c02e661528672d9492889492610cfe9291610d1157506110c7565b825194868652888601521692a238610c19565b6107e891508a3d8c116107ee576107e08183611071565b8751903d90823e3d90fd5b50818852600b845260ff838920541615610c14565b9190503461020a578060031936011261020a57610d63610fd9565b91602435610d70816113f6565b33151580610e12575b80610de9575b610dd3576001600160a01b039485169482918691167f8c5be1e5ebec7d5bd14f71427d1e84f3dd0314c0f7b2291e5b200ac8c7c3b9258880a48452602052822080546001600160a01b031916909117905580f35b835163a9fbf51f60e01b81523381850152602490fd5b506001600160a01b03811686526005602090815284872033885290528386205460ff1615610d7f565b506001600160a01b038116331415610d79565b90503461020a57602036600319011261020a57918260209335610e47816113f6565b50825283528190205490516001600160a01b039091168152f35b8284346105c257806003193601126105c2578151918182549260018460011c9160018616958615610f24575b60209687851081146105a5578899509688969785829a52918260001461057e575050600114610ec95750505061034b9291610513910385611071565b91908693508280527f290decd9548b62a8d60345a988386fc84ba6bc95484008f6362f93160ef3e5635b828410610f0c575050508201018161051361034b610500565b8054848a018601528895508794909301928101610ef3565b92607f1692610e8d565b84913461020a57602036600319011261020a573563ffffffff60e01b811680910361020a57602092506380ac58cd60e01b8114908115610f88575b8115610f77575b5015158152f35b6301ffc9a760e01b14905083610f70565b635b5e139f60e01b81149150610f69565b919082519283825260005b848110610fc5575050826000602080949584010152601f8019910116010190565b602081830181015184830182015201610fa4565b600435906001600160a01b0382168203610fef57565b600080fd5b602435906001600160a01b0382168203610fef57565b6060906003190112610fef576001600160a01b03906004358281168103610fef57916024359081168103610fef579060443590565b6020810190811067ffffffffffffffff82111761105b57604052565b634e487b7160e01b600052604160045260246000fd5b90601f8019910116810190811067ffffffffffffffff82111761105b57604052565b67ffffffffffffffff811161105b57601f01601f191660200190565b90816020910312610fef57518015158103610fef5790565b156110ce57565b60405162461bcd60e51b815260206004820152600f60248201526e151c985b9cd9995c8819985a5b1959608a1b6044820152606490fd5b6001600160a01b03918216929091831561128e576000928284528260209560028752604096848888205416968791331515806111f5575b509060027fddf252ad1be2c89b69c2b068fc378daa952ba7f163c4a11628f55a4df523b3ef92846111c2575b858352600381528b8320805460010190558683525289812080546001600160a01b0319168517905580a416928383036111a15750505050565b6064945051926364283d7b60e01b8452600484015260248301526044820152fd5b600087815260046020526040902080546001600160a01b0319169055848352600381528b83208054600019019055611168565b9193945091508061124d575b156112115785929187913861113c565b87868861122e576024915190637e27328960e01b82526004820152fd5b905163177e802f60e01b81523360048201526024810191909152604490fd5b503387148015611272575b806112015750858252600481523385898420541614611201565b5086825260058152878220338352815260ff8883205416611258565b604051633250574960e11b815260006004820152602490fd5b6112b2838383611105565b813b6112bf575b50505050565b604051630a85bd0160e11b8082523360048301526001600160a01b0392831660248301526044820194909452608060648201526020959290911693909290839061130d906084830190610f99565b039285816000958187895af18491816113b6575b50611381575050503d600014611379573d61133b81611093565b906113496040519283611071565b81528091843d92013e5b8051928361137457604051633250574960e11b815260048101849052602490fd5b019050fd5b506060611353565b919450915063ffffffff60e01b160361139e5750388080806112b9565b60249060405190633250574960e11b82526004820152fd5b9091508681813d83116113ef575b6113ce8183611071565b810103126104a457516001600160e01b0319811681036104a4579038611321565b503d6113c4565b6000818152600260205260409020546001600160a01b0316908115611419575090565b60249060405190637e27328960e01b82526004820152fd5b6006546001600160a01b0316330361144557565b60405163118cdaa760e01b8152336004820152602490fd5b6000818152600260205260408120546001600160a01b0316801591839183156114c6575b82825260026020526040822080546001600160a01b03191690557fddf252ad1be2c89b69c2b068fc378daa952ba7f163c4a11628f55a4df523b3ef8280a46114195750565b600083815260046020526040902080546001600160a01b0319169055808252600360205260408220805460001901905561148156fea26469706673582212209d5ae3a59f78d47e180ec7087fcbb2b0dbe875aa9b3160a0447514ed1b6cec1a64736f6c63430008190033000000000000000000000000eb762ed11a09e4a394c9c8101f8aeeaf5382ed74000000000000000000000000000000000000000000000000000000003b9aca000000000000000000000000000000000000000000000000000000000000002710",
        "nonce": "0x31fb",
        "chainId": "0xaa36a7"
      },
      "additionalContracts": [],
      "isFixedGasLimit": false
    },
    {
      "hash": "0xf6f4c7ea59902735b485a5e96348f2bee470f862e8695da05172a0e768d54a97",
      "transactionType": "CREATE",
      "contractName": "iBTC_Burner",
      "contractAddress": "0x99a1733f51097309e4edee97a65f3bb0aa42754d",
      "function": null,
      "arguments": [
        "0xeb762Ed11a09E4A394C9c8101f8aeeaf5382ED74",
        "0x056882FB0aFe0CCF42357D32715e04838f6F594a"
      ],
      "transaction": {
        "from": "0xf39fd6e51aad88f6f4ce6ab8827279cfffb92266",
        "gas": "0xab6cd",
        "value": "0x0",
        "input": "0x60c080604052346101015760408161096b803803809161001f8285610106565b833981010312610101578060206100428161003b60449561013f565b930161013f565b608083905260a081905260405163095ea7b360e01b81526001600160a01b03918216600482015260001960248201526000949093849283918791165af180156100f6576100b7575b6040516108179081610154823960805181818160bd015261063a015260a05181818160f101526106840152f35b6020813d6020116100ee575b816100d060209383610106565b810103126100ea5751801515036100e7578061008a565b80fd5b5080fd5b3d91506100c3565b6040513d84823e3d90fd5b600080fd5b601f909101601f19168101906001600160401b0382119082101761012957604052565b634e487b7160e01b600052604160045260246000fd5b51906001600160a01b03821682036101015756fe6080604090808252600480361015610022575b505050361561002057600080fd5b005b600091823560e01c908163150b7a02146105af5750806324bbab8b146104455780632db34bcf146105aa5780633a66896c146105aa5780634383ee3d1461046757806345a67f511461044a578063606030f214610445576392284cb60361001257346104415760208060031936011261042c5783516370a0823160e01b815230818401528235939092602491906001600160a01b03848685817f000000000000000000000000000000000000000000000000000000000000000085165afa958615610437578396610404575b507f0000000000000000000000000000000000000000000000000000000000000000169287519663ef8526f360e01b885285888481885afa9788156103fa5784986103cb575b508851633c1276c960e21b81529086828581895afa91821561033257859261039c575b50881561038a57888804918989061015610366575b8082101561035e5750965b871561034e57600019880197881161033c57885163e49eb55d60e01b81529786898581895afa9889156103325785996102ff575b5060019760018a01809a1161028f576101c4828b6106b3565b988a5b8a81106102a1576101d89150610747565b508282029180830484149015171561028f57906101f4916106d6565b90808210156102875750915b843b156102835790839291838a519687948593633a6e4e8d60e11b85528401525af19081156102785750610269575b50835183815282828201527f2af9b173527ef5f4bc3130bac428abdaf7646958117405d702f2d49774b79c12853392a28351928352820152f35b610272906106e3565b3861022f565b8651903d90823e3d90fd5b8380fd5b905091610200565b634e487b7160e01b8652601185528386fd5b6102aa81610747565b50883b156102fb578c51633a6e4e8d60e11b815280880186905288818881838e5af180156102f157908392916102e2575b50016101c7565b6102eb906106e3565b386102db565b8e513d8b823e3d90fd5b8780fd5b9098508681813d831161032b575b610317818361070d565b81010312610327575197386101ab565b8480fd5b503d61030d565b8a513d87823e3d90fd5b50634e487b7160e01b83526011825282fd5b8851636c6c627d60e11b81528390fd5b905096610177565b9060018101809111610378579061016c565b634e487b7160e01b8552601184528285fd5b634e487b7160e01b8552601284528285fd5b9091508681813d83116103c4575b6103b4818361070d565b8101031261032757519038610157565b503d6103aa565b9097508581813d83116103f3575b6103e3818361070d565b8101031261028357519638610134565b503d6103d9565b89513d86823e3d90fd5b9095508481813d8311610430575b61041c818361070d565b8101031261042c575194386100ee565b8280fd5b503d610412565b88513d85823e3d90fd5b5080fd5b610624565b828434610441578160031936011261044157602091549051908152f35b50346104415782600319360112610441578035602492816104a461048d602435856106b3565b835494908581101561059d579796959394976106d6565b6104ad8161072f565b926104ba8751948561070d565b8184526104c68261072f565b602098858a019791601f1901368937865b84811061051f5750505050505083519485948186019282875251809352850193925b82811061050857505050500390f35b8351855286955093810193928101926001016104f9565b81869b9897999a9b101561058b57868052857f290decd9548b62a8d60345a988386fc84ba6bc95484008f6362f93160ef3e5630154895182101561057957888260051b8b01015260018091019501949998979596996104d7565b634e487b7160e01b8852603285528388fd5b634e487b7160e01b8752603284528287fd5b50849796959394976106d6565b61066e565b9190503461042c57608036600319011261042c576001600160a01b03813581811603610283576024359081160361042c576064359067ffffffffffffffff90818311610327573660238401121561032757820135908111610283573691016024011161044157630a85bd0160e11b8152602090f35b34610669576000366003190112610669576040517f00000000000000000000000000000000000000000000000000000000000000006001600160a01b03168152602090f35b600080fd5b34610669576000366003190112610669576040517f00000000000000000000000000000000000000000000000000000000000000006001600160a01b03168152602090f35b919082018092116106c057565b634e487b7160e01b600052601160045260246000fd5b919082039182116106c057565b67ffffffffffffffff81116106f757604052565b634e487b7160e01b600052604160045260246000fd5b90601f8019910116810190811067ffffffffffffffff8211176106f757604052565b67ffffffffffffffff81116106f75760051b60200190565b6000818152600160205260408120546107dc578054680100000000000000008110156107c857600181018083558110156107b45790826040927f290decd9548b62a8d60345a988386fc84ba6bc95484008f6362f93160ef3e5630155805492815260016020522055600190565b634e487b7160e01b82526032600452602482fd5b634e487b7160e01b82526041600452602482fd5b90509056fea2646970667358221220f1252e5b43c7b1d33113a0f38c05999a338b00d79d3bd1adffa6f80206c9b7c864736f6c63430008190033000000000000000000000000eb762ed11a09e4a394c9c8101f8aeeaf5382ed74000000000000000000000000056882fb0afe0ccf42357d32715e04838f6f594a",
        "nonce": "0x31fc",
        "chainId": "0xaa36a7"
      },
      "additionalContracts": [],
      "isFixedGasLimit": false
    },
    {
      "hash": "0xdcc41a38cda169691dc39e82c16a1bbb4f060158077d9510b70d2cdf9d145e65",
      "transactionType": "CREATE",
      "contractName": "VaultConfigurator",
      "contractAddress": "0xcd02af2f4b659c35e409a4c67b2a7ea178a3d9f9",
      "function": null,
      "arguments": [
        "0x407A039D94948484D356eFB765b3c74382A050B4",
        "0x890CA3f95E0f40a79885B7400926544B2214B03f",
        "0xbf34bf75bb779c383267736c53a4ae86ac7bB299"
      ],
      "transaction": {
        "from": "0xf39fd6e51aad88f6f4ce6ab8827279cfffb92266",
        "gas": "0x8c27c",
        "value": "0x0",
        "input": "0x60e0346100a957601f6107d338819003918201601f19168301916001600160401b038311848410176100ae578084926060946040528339810103126100a957610047816100c4565b906100606040610059602084016100c4565b92016100c4565b9160805260a05260c0526040516106fa90816100d982396080518181816101b20152610533015260a05181818161023d01526104f0015260c05181818161038701526104ac0152f35b600080fd5b634e487b7160e01b600052604160045260246000fd5b51906001600160a01b03821682036100a95756fe608060409080825260048036101561001657600080fd5b600091823560e01c908163103f29071461051f575080636da3e06d146104db57806387df0788146104975763c48927e41461005057600080fd5b346104935760209060031993828536011261048f57813567ffffffffffffffff938482116103125761010080978336030112610312578251968701968088108689111761047c57869784526100a68386016105ae565b81526001600160a01b039560248401358781168103610478578383019081526044850135828111610474576100e0908836918801016105c8565b918684019283526100f3606487016105ae565b9560608501968752608481013582811161047057610116908a36918401016105c8565b966080860197885260a482013590811515820361046c5760a0870191825261014060c484016105ae565b9260c0880193845260e481013596858811610468578d8f978e9861016c8f9b958b8f97369201016105c8565b9960e08d019a8b526101ae848b849f511694511695519c519c8d9687958694633ac0491160e01b8652850152602484015260606044840152606483019061063e565b03927f0000000000000000000000000000000000000000000000000000000000000000165af195861561045e5791888d8f8d96948f9896829b610435575b509086610239939251169d51908b61020a8a5193849288840161067e565b039861021e601f199a8b810185528461058c565b519e8f94859384926319a211df60e31b9d8e855284016106a3565b03927f0000000000000000000000000000000000000000000000000000000000000000165af1998a15610429578d9e9d98999a9b9c9d9b6103fe575b509089959493929151610341575b5050505050501695863b156103205784516383cd9cc360e01b8152938116868501819052938881602481838c5af1801561033757610324575b50863b1561032057845163555e124b60e11b815291169481018590528681602481838a5af18015610316576102fe575b50606095508251948552840152820152f35b6103088791610562565b61031257856102ec565b8580fd5b84513d89823e3d90fd5b8780fd5b61033090989198610562565b96386102bc565b86513d8b823e3d90fd5b61036d9394959698506103619750511693518a519687918988840161067e565b0390810186528561058c565b6103818851948593849384528b84016106a3565b03818b8b7f0000000000000000000000000000000000000000000000000000000000000000165af19081156103f45790879189916103c7575b5091833880808080610283565b6103e79150843d86116103ed575b6103df818361058c565b81019061061f565b386103ba565b503d6103d5565b85513d8a823e3d90fd5b8a9695949392919b5061041d90873d89116103ed576103df818361058c565b9a909192939495610275565b8e8c51903d90823e3d90fd5b6102399392919b506104548891863d88116103ed576103df818361058c565b9b919293506101ec565b8a513d8f823e3d90fd5b8e80fd5b8c80fd5b8b80fd5b8980fd5b8880fd5b634e487b7160e01b875260418552602487fd5b8380fd5b5080fd5b828434610493578160031936011261049357517f00000000000000000000000000000000000000000000000000000000000000006001600160a01b03168152602090f35b828434610493578160031936011261049357517f00000000000000000000000000000000000000000000000000000000000000006001600160a01b03168152602090f35b8390346104935781600319360112610493577f00000000000000000000000000000000000000000000000000000000000000006001600160a01b03168152602090f35b67ffffffffffffffff811161057657604052565b634e487b7160e01b600052604160045260246000fd5b90601f8019910116810190811067ffffffffffffffff82111761057657604052565b359067ffffffffffffffff821682036105c357565b600080fd5b81601f820112156105c35780359067ffffffffffffffff821161057657604051926105fd601f8401601f19166020018561058c565b828452602083830101116105c357816000926020809301838601378301015290565b908160209103126105c357516001600160a01b03811681036105c35790565b919082519283825260005b84811061066a575050826000602080949584010152601f8019910116010190565b602081830181015184830182015201610649565b6001600160a01b0390911681526040602082018190526106a09291019061063e565b90565b60409067ffffffffffffffff6106a09493168152816020820152019061063e56fea2646970667358221220a15e74be6fdd6b7b904c3c764431be8f2202efc3eaae23a709621012e3bb6bff64736f6c63430008190033000000000000000000000000407a039d94948484d356efb765b3c74382a050b4000000000000000000000000890ca3f95e0f40a79885b7400926544b2214b03f000000000000000000000000bf34bf75bb779c383267736c53a4ae86ac7bb299",
        "nonce": "0x31fd",
        "chainId": "0xaa36a7"
      },
      "additionalContracts": [],
      "isFixedGasLimit": false
    },
    {
      "hash": "0x9170327974481a322adc953981380065170a97ef72b6efab3d5ad1462268d0ff",
      "transactionType": "CALL",
      "contractName": "VaultConfigurator",
      "contractAddress": "0xcd02af2f4b659c35e409a4c67b2a7ea178a3d9f9",
      "function": "create((uint64,address,bytes,uint64,bytes,bool,uint64,bytes))",
      "arguments": [
        "(1, 0xf39Fd6e51aad88F6F4ce6aB8827279cffFb92266, 0x000000000000000000000000eb762ed11a09e4a394c9c8101f8aeeaf5382ed7400000000000000000000000099a1733f51097309e4edee97a65f3bb0aa42754d0000000000000000000000000000000000000000000000000000000000093a8000000000000000000000000000000000000000000000000000000000000000000000000000000000000000000000000000000000000000000000000000000001000000000000000000000000000000000000000000000000000000003b9aca00000000000000000000000000f39fd6e51aad88f6f4ce6ab8827279cfffb92266000000000000000000000000f39fd6e51aad88f6f4ce6ab8827279cfffb92266000000000000000000000000f39fd6e51aad88f6f4ce6ab8827279cfffb92266000000000000000000000000f39fd6e51aad88f6f4ce6ab8827279cfffb92266000000000000000000000000f39fd6e51aad88f6f4ce6ab8827279cfffb92266, 0, 0x0000000000000000000000000000000000000000000000000000000000000020000000000000000000000000f39fd6e51aad88f6f4ce6ab8827279cfffb922660000000000000000000000000000000000000000000000000000000000000000000000000000000000000000f39fd6e51aad88f6f4ce6ab8827279cfffb9226600000000000000000000000000000000000000000000000000000000000000a000000000000000000000000000000000000000000000000000000000000000e00000000000000000000000000000000000000000000000000000000000000001000000000000000000000000f39fd6e51aad88f6f4ce6ab8827279cfffb922660000000000000000000000000000000000000000000000000000000000000001000000000000000000000000f39fd6e51aad88f6f4ce6ab8827279cfffb92266, true, 1, 0x000000000000000000000000000000000000000000000000000000000000000100000000000000000000000000000000000000000000000000000000000151800000000000000000000000000000000000000000000000000000000000000003)"
      ],
      "transaction": {
        "from": "0xf39fd6e51aad88f6f4ce6ab8827279cfffb92266",
        "to": "0xcd02af2f4b659c35e409a4c67b2a7ea178a3d9f9",
        "gas": "0x1a2308",
        "value": "0x0",
        "input": "0xc48927e400000000000000000000000000000000000000000000000000000000000000200000000000000000000000000000000000000000000000000000000000000001000000000000000000000000f39fd6e51aad88f6f4ce6ab8827279cfffb922660000000000000000000000000000000000000000000000000000000000000100000000000000000000000000000000000000000000000000000000000000000000000000000000000000000000000000000000000000000000000000000002800000000000000000000000000000000000000000000000000000000000000001000000000000000000000000000000000000000000000000000000000000000100000000000000000000000000000000000000000000000000000000000003e00000000000000000000000000000000000000000000000000000000000000160000000000000000000000000eb762ed11a09e4a394c9c8101f8aeeaf5382ed7400000000000000000000000099a1733f51097309e4edee97a65f3bb0aa42754d0000000000000000000000000000000000000000000000000000000000093a8000000000000000000000000000000000000000000000000000000000000000000000000000000000000000000000000000000000000000000000000000000001000000000000000000000000000000000000000000000000000000003b9aca00000000000000000000000000f39fd6e51aad88f6f4ce6ab8827279cfffb92266000000000000000000000000f39fd6e51aad88f6f4ce6ab8827279cfffb92266000000000000000000000000f39fd6e51aad88f6f4ce6ab8827279cfffb92266000000000000000000000000f39fd6e51aad88f6f4ce6ab8827279cfffb92266000000000000000000000000f39fd6e51aad88f6f4ce6ab8827279cfffb9226600000000000000000000000000000000000000000000000000000000000001400000000000000000000000000000000000000000000000000000000000000020000000000000000000000000f39fd6e51aad88f6f4ce6ab8827279cfffb922660000000000000000000000000000000000000000000000000000000000000000000000000000000000000000f39fd6e51aad88f6f4ce6ab8827279cfffb9226600000000000000000000000000000000000000000000000000000000000000a000000000000000000000000000000000000000000000000000000000000000e00000000000000000000000000000000000000000000000000000000000000001000000000000000000000000f39fd6e51aad88f6f4ce6ab8827279cfffb922660000000000000000000000000000000000000000000000000000000000000001000000000000000000000000f39fd6e51aad88f6f4ce6ab8827279cfffb922660000000000000000000000000000000000000000000000000000000000000060000000000000000000000000000000000000000000000000000000000000000100000000000000000000000000000000000000000000000000000000000151800000000000000000000000000000000000000000000000000000000000000003",
        "nonce": "0x31fe",
        "chainId": "0xaa36a7"
      },
      "additionalContracts": [
        {
          "transactionType": "CREATE2",
          "address": "0xa21b90abccc937cf06e47ae20e52b9741771ec3c",
          "initCode": "0x604060a0815234610204576106098038038061001a81610209565b92833981019082818303126102045780516001600160a01b0392838216918281036102045760208481015190946001600160401b038211610204570182601f820112156102045780519061007561007083610244565b610209565b9382855286838301011161020457859060005b8381106101f057505060009184010152803b156101d8577f360894a13ba1a3210667c828492db98dca3e2076cc3735a920a3ca505d382bbc80546001600160a01b03199081168517909155927fbc7cd75a20ee27fd9adebab32041f755214dbc6bffa90cc0225b39da2e5c2d3b600080a2815191849083156101cf5761013493600092839201845af43d156101c7573d9161012561007084610244565b9283523d60008785013e61025f565b505b336080527f7e644d79422f17c01e4894b5f4f588d331ebfa28653d42ae832dc59e38c9798f847fb53127684a568b3173ae13b9f8a6016e243e63b6e8ee1178d6a717850b5d610394855494825191861682523390820152a133156101af5716331790555161034690816102c38239608051816101030152f35b8351633173bdd160e11b815260006004820152602490fd5b60609161025f565b50505050610136565b8551634c9c8ce360e01b815260048101849052602490fd5b818101830151868201840152879201610088565b600080fd5b6040519190601f01601f191682016001600160401b0381118382101761022e57604052565b634e487b7160e01b600052604160045260246000fd5b6001600160401b03811161022e57601f01601f191660200190565b90610286575080511561027457805190602001fd5b604051630a12f52160e11b8152600490fd5b815115806102b9575b610297575090565b604051639996b31560e01b81526001600160a01b039091166004820152602490fd5b50803b1561028f56fe60806040526004361061020d576000803560e01c634f1ef28614610023575061020d565b34610097576040366003190112610097576004356001600160a01b0381168103610093576024359067ffffffffffffffff9081831161008f573660238401121561008f57826004013591821161008f57366024838501011161008f57602461008c9301906100f7565b80f35b8380fd5b5080fd5b80fd5b634e487b7160e01b600052604160045260246000fd5b6040519190601f01601f1916820167ffffffffffffffff8111838210176100d657604052565b61009a565b67ffffffffffffffff81116100d657601f01601f191660200190565b916001600160a01b03907f0000000000000000000000000000000000000000000000000000000000000000821633036101fb5761013b610136826100db565b6100b0565b9281845236828201116101f657816000926020928387013784010152823b156101dc5782167f360894a13ba1a3210667c828492db98dca3e2076cc3735a920a3ca505d382bbc816bffffffffffffffffffffffff60a01b8254161790557fbc7cd75a20ee27fd9adebab32041f755214dbc6bffa90cc0225b39da2e5c2d3b600080a28051156101d0576101cd91610272565b50565b50506101da610259565b565b604051634c9c8ce360e01b81529083166004820152602490fd5b600080fd5b6040516334ad5dbb60e21b8152600490fd5b7f360894a13ba1a3210667c828492db98dca3e2076cc3735a920a3ca505d382bbc54600090819081906001600160a01b0316368280378136915af43d82803e15610255573d90f35b3d90fd5b3461026057565b60405163b398979f60e01b8152600490fd5b6000806102a693602081519101845af43d156102a9573d91610296610136846100db565b9283523d6000602085013e6102ad565b90565b6060915b906102d457508051156102c257805190602001fd5b604051630a12f52160e11b8152600490fd5b81511580610307575b6102e5575090565b604051639996b31560e01b81526001600160a01b039091166004820152602490fd5b50803b156102dd56fea2646970667358221220e5c18f58a04218f912ea9f96de2e9f1b005db1c63ed03f594dd8fa5fd75fea9a64736f6c63430008190033000000000000000000000000586ccdcdc81f52dbe224d03caf2a790b6d4379b9000000000000000000000000000000000000000000000000000000000000004000000000000000000000000000000000000000000000000000000000000001e457ec83cc0000000000000000000000000000000000000000000000000000000000000001000000000000000000000000f39fd6e51aad88f6f4ce6ab8827279cfffb9226600000000000000000000000000000000000000000000000000000000000000600000000000000000000000000000000000000000000000000000000000000160000000000000000000000000eb762ed11a09e4a394c9c8101f8aeeaf5382ed7400000000000000000000000099a1733f51097309e4edee97a65f3bb0aa42754d0000000000000000000000000000000000000000000000000000000000093a8000000000000000000000000000000000000000000000000000000000000000000000000000000000000000000000000000000000000000000000000000000001000000000000000000000000000000000000000000000000000000003b9aca00000000000000000000000000f39fd6e51aad88f6f4ce6ab8827279cfffb92266000000000000000000000000f39fd6e51aad88f6f4ce6ab8827279cfffb92266000000000000000000000000f39fd6e51aad88f6f4ce6ab8827279cfffb92266000000000000000000000000f39fd6e51aad88f6f4ce6ab8827279cfffb92266000000000000000000000000f39fd6e51aad88f6f4ce6ab8827279cfffb9226600000000000000000000000000000000000000000000000000000000"
        },
        {
          "transactionType": "CREATE2",
          "address": "0x09a21c593f1521543b258f215f24f66761407223",
          "initCode": "0x3d602d80600a3d3981f3363d3d373d3d3d363d7345195a5da7c896ffbe709f65076a956990aeaac55af43d82803e903d91602b57fd5bf3"
        },
        {
          "transactionType": "CREATE2",
          "address": "0x2a620975dcbf40ac41cdf6fb16dcfc67acfbfa50",
          "initCode": "0x3d602d80600a3d3981f3363d3d373d3d3d363d73ef5e3833c1fe43e4a8eca9411d204b839508e9b85af43d82803e903d91602b57fd5bf3"
        }
      ],
      "isFixedGasLimit": false
    }
  ],
  "receipts": [
    {
      "status": "0x1",
      "cumulativeGasUsed": "0x14ad61",
      "logs": [
        {
          "address": "0x056882fb0afe0ccf42357d32715e04838f6f594a",
          "topics": [
            "0x8be0079c531659141344cd1fd0a4f28419497f9722a3daafe3b4186f6b6457e0",
            "0x0000000000000000000000000000000000000000000000000000000000000000",
            "0x000000000000000000000000f39fd6e51aad88f6f4ce6ab8827279cfffb92266"
          ],
          "data": "0x",
          "blockHash": "0x40d87430430a0a7d54d71a6027e5ccfd32270549dc11da3575017b2940fe1d94",
          "blockNumber": "0x6ca90f",
          "blockTimestamp": "0x673ef8df",
          "transactionHash": "0xce960b657a20859230d19d1e0e8db3274a902134c28766c311342bed31c7af77",
          "transactionIndex": "0x0",
          "logIndex": "0x0",
          "removed": false
        }
      ],
      "logsBloom": "0x00000000000000000000000000020000000000000000000000800000000000000000000000000000000000000000000000000000400000000000000000000000000000000000000000000000000000000001000000000000000000000000000000000000020000000000000100000800000000000000000000000000000000400000000000000000000000000000000000000000000000000000000000000000080000000000000000000000000000000000000000000000000000000000000000000000000000200000000000000000000000002000000000000000000020000000000000000000000000000000000000000000000000000000000000000000",
      "type": "0x2",
      "transactionHash": "0xce960b657a20859230d19d1e0e8db3274a902134c28766c311342bed31c7af77",
      "transactionIndex": "0x0",
      "blockHash": "0x40d87430430a0a7d54d71a6027e5ccfd32270549dc11da3575017b2940fe1d94",
      "blockNumber": "0x6ca90f",
      "gasUsed": "0x14ad61",
      "effectiveGasPrice": "0x183be584f",
      "blobGasPrice": "0x8c",
      "from": "0xf39fd6e51aad88f6f4ce6ab8827279cfffb92266",
      "to": null,
      "contractAddress": "0x056882fb0afe0ccf42357d32715e04838f6f594a",
      "root": "0x0000000000000000000000000000000000000000000000000000000000000000"
    },
    {
      "status": "0x1",
      "cumulativeGasUsed": "0x83e75",
      "logs": [
        {
          "address": "0xeb762ed11a09e4a394c9c8101f8aeeaf5382ed74",
          "topics": [
            "0x8c5be1e5ebec7d5bd14f71427d1e84f3dd0314c0f7b2291e5b200ac8c7c3b925",
            "0x00000000000000000000000099a1733f51097309e4edee97a65f3bb0aa42754d",
            "0x000000000000000000000000056882fb0afe0ccf42357d32715e04838f6f594a"
          ],
          "data": "0xffffffffffffffffffffffffffffffffffffffffffffffffffffffffffffffff",
          "blockHash": "0x9e7ae775398d8471fa3fcfc9b691b049c539c21242c33bd5dbbf88ed8f79e2e0",
          "blockNumber": "0x6ca910",
          "blockTimestamp": "0x673ef8e0",
          "transactionHash": "0xf6f4c7ea59902735b485a5e96348f2bee470f862e8695da05172a0e768d54a97",
          "transactionIndex": "0x0",
          "logIndex": "0x0",
          "removed": false
        }
      ],
      "logsBloom": "0x00000000000000000800000000000000080000000040000000000000000200000000000000000000000000000000000000000000000000000000008000200000000000000000000000000000000000000000000000800000000000000000000000000000000000000000040000000000000000000000000000000000000000000000000000000000000000000000000000000000000000000000000000000000020000000000000000000000000000008000000000000000000000000000000000000000000000000000000000000000000000000000000000000000000000000010000000000000000000008000000000000000000000000000000000000000",
      "type": "0x2",
      "transactionHash": "0xf6f4c7ea59902735b485a5e96348f2bee470f862e8695da05172a0e768d54a97",
      "transactionIndex": "0x0",
      "blockHash": "0x9e7ae775398d8471fa3fcfc9b691b049c539c21242c33bd5dbbf88ed8f79e2e0",
      "blockNumber": "0x6ca910",
      "gasUsed": "0x83e75",
      "effectiveGasPrice": "0x157a93607",
      "blobGasPrice": "0x7d",
      "from": "0xf39fd6e51aad88f6f4ce6ab8827279cfffb92266",
      "to": null,
      "contractAddress": "0x99a1733f51097309e4edee97a65f3bb0aa42754d",
      "root": "0x0000000000000000000000000000000000000000000000000000000000000000"
    },
    {
      "status": "0x1",
      "cumulativeGasUsed": "0x6bd81",
      "logs": [],
      "logsBloom": "0x00000000000000000000000000000000000000000000000000000000000000000000000000000000000000000000000000000000000000000000000000000000000000000000000000000000000000000000000000000000000000000000000000000000000000000000000000000000000000000000000000000000000000000000000000000000000000000000000000000000000000000000000000000000000000000000000000000000000000000000000000000000000000000000000000000000000000000000000000000000000000000000000000000000000000000000000000000000000000000000000000000000000000000000000000000000",
      "type": "0x2",
      "transactionHash": "0xdcc41a38cda169691dc39e82c16a1bbb4f060158077d9510b70d2cdf9d145e65",
      "transactionIndex": "0x0",
      "blockHash": "0xbdad064ce9125d37bd71bcd9df6fbd648efae53b74c8272cc43d8e8fcd6e24f4",
      "blockNumber": "0x6ca911",
      "gasUsed": "0x6bd81",
      "effectiveGasPrice": "0x12e41ffb5",
      "blobGasPrice": "0x6f",
      "from": "0xf39fd6e51aad88f6f4ce6ab8827279cfffb92266",
      "to": null,
      "contractAddress": "0xcd02af2f4b659c35e409a4c67b2a7ea178a3d9f9",
      "root": "0x0000000000000000000000000000000000000000000000000000000000000000"
    },
    {
      "status": "0x1",
      "cumulativeGasUsed": "0x189d22",
      "logs": [
        {
          "address": "0xa21b90abccc937cf06e47ae20e52b9741771ec3c",
          "topics": [
            "0xbc7cd75a20ee27fd9adebab32041f755214dbc6bffa90cc0225b39da2e5c2d3b",
            "0x000000000000000000000000586ccdcdc81f52dbe224d03caf2a790b6d4379b9"
          ],
          "data": "0x",
          "blockHash": "0xbdad064ce9125d37bd71bcd9df6fbd648efae53b74c8272cc43d8e8fcd6e24f4",
          "blockNumber": "0x6ca911",
          "blockTimestamp": "0x673ef8e1",
          "transactionHash": "0x9170327974481a322adc953981380065170a97ef72b6efab3d5ad1462268d0ff",
          "transactionIndex": "0x1",
          "logIndex": "0x0",
          "removed": false
        },
        {
          "address": "0xa21b90abccc937cf06e47ae20e52b9741771ec3c",
          "topics": [
            "0x8be0079c531659141344cd1fd0a4f28419497f9722a3daafe3b4186f6b6457e0",
            "0x0000000000000000000000000000000000000000000000000000000000000000",
            "0x000000000000000000000000f39fd6e51aad88f6f4ce6ab8827279cfffb92266"
          ],
          "data": "0x",
          "blockHash": "0xbdad064ce9125d37bd71bcd9df6fbd648efae53b74c8272cc43d8e8fcd6e24f4",
          "blockNumber": "0x6ca911",
          "blockTimestamp": "0x673ef8e1",
          "transactionHash": "0x9170327974481a322adc953981380065170a97ef72b6efab3d5ad1462268d0ff",
          "transactionIndex": "0x1",
          "logIndex": "0x1",
          "removed": false
        },
        {
          "address": "0xa21b90abccc937cf06e47ae20e52b9741771ec3c",
          "topics": [
            "0x2f8788117e7eff1d82e926ec794901d17c78024a50270940304540a733656f0d",
            "0x0000000000000000000000000000000000000000000000000000000000000000",
            "0x000000000000000000000000f39fd6e51aad88f6f4ce6ab8827279cfffb92266",
            "0x000000000000000000000000407a039d94948484d356efb765b3c74382a050b4"
          ],
          "data": "0x",
          "blockHash": "0xbdad064ce9125d37bd71bcd9df6fbd648efae53b74c8272cc43d8e8fcd6e24f4",
          "blockNumber": "0x6ca911",
          "blockTimestamp": "0x673ef8e1",
          "transactionHash": "0x9170327974481a322adc953981380065170a97ef72b6efab3d5ad1462268d0ff",
          "transactionIndex": "0x1",
          "logIndex": "0x2",
          "removed": false
        },
        {
          "address": "0xa21b90abccc937cf06e47ae20e52b9741771ec3c",
          "topics": [
            "0x2f8788117e7eff1d82e926ec794901d17c78024a50270940304540a733656f0d",
            "0xbae4ee3de6c709ff9a002e774c5b78cb381560b219213c88ae0f1e207c03c023",
            "0x000000000000000000000000f39fd6e51aad88f6f4ce6ab8827279cfffb92266",
            "0x000000000000000000000000407a039d94948484d356efb765b3c74382a050b4"
          ],
          "data": "0x",
          "blockHash": "0xbdad064ce9125d37bd71bcd9df6fbd648efae53b74c8272cc43d8e8fcd6e24f4",
          "blockNumber": "0x6ca911",
          "blockTimestamp": "0x673ef8e1",
          "transactionHash": "0x9170327974481a322adc953981380065170a97ef72b6efab3d5ad1462268d0ff",
          "transactionIndex": "0x1",
          "logIndex": "0x3",
          "removed": false
        },
        {
          "address": "0xa21b90abccc937cf06e47ae20e52b9741771ec3c",
          "topics": [
            "0x2f8788117e7eff1d82e926ec794901d17c78024a50270940304540a733656f0d",
            "0x9c56d972d63cbb4195b3c1484691dfc220fa96a4c47e7b6613bd82a022029e06",
            "0x000000000000000000000000f39fd6e51aad88f6f4ce6ab8827279cfffb92266",
            "0x000000000000000000000000407a039d94948484d356efb765b3c74382a050b4"
          ],
          "data": "0x",
          "blockHash": "0xbdad064ce9125d37bd71bcd9df6fbd648efae53b74c8272cc43d8e8fcd6e24f4",
          "blockNumber": "0x6ca911",
          "blockTimestamp": "0x673ef8e1",
          "transactionHash": "0x9170327974481a322adc953981380065170a97ef72b6efab3d5ad1462268d0ff",
          "transactionIndex": "0x1",
          "logIndex": "0x4",
          "removed": false
        },
        {
          "address": "0xa21b90abccc937cf06e47ae20e52b9741771ec3c",
          "topics": [
            "0x2f8788117e7eff1d82e926ec794901d17c78024a50270940304540a733656f0d",
            "0xc6aaadd7371d5e8f9ed6849dd66a66573a3ba37167d03f4352c9ba5693678fac",
            "0x000000000000000000000000f39fd6e51aad88f6f4ce6ab8827279cfffb92266",
            "0x000000000000000000000000407a039d94948484d356efb765b3c74382a050b4"
          ],
          "data": "0x",
          "blockHash": "0xbdad064ce9125d37bd71bcd9df6fbd648efae53b74c8272cc43d8e8fcd6e24f4",
          "blockNumber": "0x6ca911",
          "blockTimestamp": "0x673ef8e1",
          "transactionHash": "0x9170327974481a322adc953981380065170a97ef72b6efab3d5ad1462268d0ff",
          "transactionIndex": "0x1",
          "logIndex": "0x5",
          "removed": false
        },
        {
          "address": "0xa21b90abccc937cf06e47ae20e52b9741771ec3c",
          "topics": [
            "0x2f8788117e7eff1d82e926ec794901d17c78024a50270940304540a733656f0d",
            "0x4a634bc14d77baf979756509ef4298c6f6318af357828612545267ee2eb79233",
            "0x000000000000000000000000f39fd6e51aad88f6f4ce6ab8827279cfffb92266",
            "0x000000000000000000000000407a039d94948484d356efb765b3c74382a050b4"
          ],
          "data": "0x",
          "blockHash": "0xbdad064ce9125d37bd71bcd9df6fbd648efae53b74c8272cc43d8e8fcd6e24f4",
          "blockNumber": "0x6ca911",
          "blockTimestamp": "0x673ef8e1",
          "transactionHash": "0x9170327974481a322adc953981380065170a97ef72b6efab3d5ad1462268d0ff",
          "transactionIndex": "0x1",
          "logIndex": "0x6",
          "removed": false
        },
        {
          "address": "0xa21b90abccc937cf06e47ae20e52b9741771ec3c",
          "topics": [
            "0xc7f505b2f371ae2175ee4913f4499e1f2633a7b5936321eed1cdaeb6115181d2"
          ],
          "data": "0x0000000000000000000000000000000000000000000000000000000000000001",
          "blockHash": "0xbdad064ce9125d37bd71bcd9df6fbd648efae53b74c8272cc43d8e8fcd6e24f4",
          "blockNumber": "0x6ca911",
          "blockTimestamp": "0x673ef8e1",
          "transactionHash": "0x9170327974481a322adc953981380065170a97ef72b6efab3d5ad1462268d0ff",
          "transactionIndex": "0x1",
          "logIndex": "0x7",
          "removed": false
        },
        {
          "address": "0xa21b90abccc937cf06e47ae20e52b9741771ec3c",
          "topics": [
            "0x7e644d79422f17c01e4894b5f4f588d331ebfa28653d42ae832dc59e38c9798f"
          ],
          "data": "0x0000000000000000000000000000000000000000000000000000000000000000000000000000000000000000407a039d94948484d356efb765b3c74382a050b4",
          "blockHash": "0xbdad064ce9125d37bd71bcd9df6fbd648efae53b74c8272cc43d8e8fcd6e24f4",
          "blockNumber": "0x6ca911",
          "blockTimestamp": "0x673ef8e1",
          "transactionHash": "0x9170327974481a322adc953981380065170a97ef72b6efab3d5ad1462268d0ff",
          "transactionIndex": "0x1",
          "logIndex": "0x8",
          "removed": false
        },
        {
          "address": "0x407a039d94948484d356efb765b3c74382a050b4",
          "topics": [
            "0xb919910dcefbf753bfd926ab3b1d3f85d877190c3d01ba1bd585047b99b99f0b",
            "0x000000000000000000000000a21b90abccc937cf06e47ae20e52b9741771ec3c"
          ],
          "data": "0x",
          "blockHash": "0xbdad064ce9125d37bd71bcd9df6fbd648efae53b74c8272cc43d8e8fcd6e24f4",
          "blockNumber": "0x6ca911",
          "blockTimestamp": "0x673ef8e1",
          "transactionHash": "0x9170327974481a322adc953981380065170a97ef72b6efab3d5ad1462268d0ff",
          "transactionIndex": "0x1",
          "logIndex": "0x9",
          "removed": false
        },
        {
          "address": "0x890ca3f95e0f40a79885b7400926544b2214b03f",
          "topics": [
            "0xb919910dcefbf753bfd926ab3b1d3f85d877190c3d01ba1bd585047b99b99f0b",
            "0x00000000000000000000000009a21c593f1521543b258f215f24f66761407223"
          ],
          "data": "0x",
          "blockHash": "0xbdad064ce9125d37bd71bcd9df6fbd648efae53b74c8272cc43d8e8fcd6e24f4",
          "blockNumber": "0x6ca911",
          "blockTimestamp": "0x673ef8e1",
          "transactionHash": "0x9170327974481a322adc953981380065170a97ef72b6efab3d5ad1462268d0ff",
          "transactionIndex": "0x1",
          "logIndex": "0xa",
          "removed": false
        },
        {
          "address": "0x09a21c593f1521543b258f215f24f66761407223",
          "topics": [
            "0x2f8788117e7eff1d82e926ec794901d17c78024a50270940304540a733656f0d",
            "0x008b9b1e5fa9cf3b14f87f435649268146305ddf689f082e5961a335b07a9abf",
            "0x000000000000000000000000f39fd6e51aad88f6f4ce6ab8827279cfffb92266",
            "0x000000000000000000000000890ca3f95e0f40a79885b7400926544b2214b03f"
          ],
          "data": "0x",
          "blockHash": "0xbdad064ce9125d37bd71bcd9df6fbd648efae53b74c8272cc43d8e8fcd6e24f4",
          "blockNumber": "0x6ca911",
          "blockTimestamp": "0x673ef8e1",
          "transactionHash": "0x9170327974481a322adc953981380065170a97ef72b6efab3d5ad1462268d0ff",
          "transactionIndex": "0x1",
          "logIndex": "0xb",
          "removed": false
        },
        {
          "address": "0x09a21c593f1521543b258f215f24f66761407223",
          "topics": [
            "0x2f8788117e7eff1d82e926ec794901d17c78024a50270940304540a733656f0d",
            "0x1312a1cf530e56add9be4fd84db9051dcc7635952f09f735f9a29405b5584625",
            "0x000000000000000000000000f39fd6e51aad88f6f4ce6ab8827279cfffb92266",
            "0x000000000000000000000000890ca3f95e0f40a79885b7400926544b2214b03f"
          ],
          "data": "0x",
          "blockHash": "0xbdad064ce9125d37bd71bcd9df6fbd648efae53b74c8272cc43d8e8fcd6e24f4",
          "blockNumber": "0x6ca911",
          "blockTimestamp": "0x673ef8e1",
          "transactionHash": "0x9170327974481a322adc953981380065170a97ef72b6efab3d5ad1462268d0ff",
          "transactionIndex": "0x1",
          "logIndex": "0xc",
          "removed": false
        },
        {
          "address": "0x09a21c593f1521543b258f215f24f66761407223",
          "topics": [
            "0x2f8788117e7eff1d82e926ec794901d17c78024a50270940304540a733656f0d",
            "0x0000000000000000000000000000000000000000000000000000000000000000",
            "0x000000000000000000000000f39fd6e51aad88f6f4ce6ab8827279cfffb92266",
            "0x000000000000000000000000890ca3f95e0f40a79885b7400926544b2214b03f"
          ],
          "data": "0x",
          "blockHash": "0xbdad064ce9125d37bd71bcd9df6fbd648efae53b74c8272cc43d8e8fcd6e24f4",
          "blockNumber": "0x6ca911",
          "blockTimestamp": "0x673ef8e1",
          "transactionHash": "0x9170327974481a322adc953981380065170a97ef72b6efab3d5ad1462268d0ff",
          "transactionIndex": "0x1",
          "logIndex": "0xd",
          "removed": false
        },
        {
          "address": "0x09a21c593f1521543b258f215f24f66761407223",
          "topics": [
            "0x2f8788117e7eff1d82e926ec794901d17c78024a50270940304540a733656f0d",
            "0xd1c1f6fa6bf27d54c5e54c7c1dc6e5004d3c027ea1994fe68b29c1b51b69c36c",
            "0x000000000000000000000000f39fd6e51aad88f6f4ce6ab8827279cfffb92266",
            "0x000000000000000000000000890ca3f95e0f40a79885b7400926544b2214b03f"
          ],
          "data": "0x",
          "blockHash": "0xbdad064ce9125d37bd71bcd9df6fbd648efae53b74c8272cc43d8e8fcd6e24f4",
          "blockNumber": "0x6ca911",
          "blockTimestamp": "0x673ef8e1",
          "transactionHash": "0x9170327974481a322adc953981380065170a97ef72b6efab3d5ad1462268d0ff",
          "transactionIndex": "0x1",
          "logIndex": "0xe",
          "removed": false
        },
        {
          "address": "0x09a21c593f1521543b258f215f24f66761407223",
          "topics": [
            "0xc7f505b2f371ae2175ee4913f4499e1f2633a7b5936321eed1cdaeb6115181d2"
          ],
          "data": "0x0000000000000000000000000000000000000000000000000000000000000001",
          "blockHash": "0xbdad064ce9125d37bd71bcd9df6fbd648efae53b74c8272cc43d8e8fcd6e24f4",
          "blockNumber": "0x6ca911",
          "blockTimestamp": "0x673ef8e1",
          "transactionHash": "0x9170327974481a322adc953981380065170a97ef72b6efab3d5ad1462268d0ff",
          "transactionIndex": "0x1",
          "logIndex": "0xf",
          "removed": false
        },
        {
          "address": "0xbf34bf75bb779c383267736c53a4ae86ac7bb299",
          "topics": [
            "0xb919910dcefbf753bfd926ab3b1d3f85d877190c3d01ba1bd585047b99b99f0b",
            "0x0000000000000000000000002a620975dcbf40ac41cdf6fb16dcfc67acfbfa50"
          ],
          "data": "0x",
          "blockHash": "0xbdad064ce9125d37bd71bcd9df6fbd648efae53b74c8272cc43d8e8fcd6e24f4",
          "blockNumber": "0x6ca911",
          "blockTimestamp": "0x673ef8e1",
          "transactionHash": "0x9170327974481a322adc953981380065170a97ef72b6efab3d5ad1462268d0ff",
          "transactionIndex": "0x1",
          "logIndex": "0x10",
          "removed": false
        },
        {
          "address": "0x2a620975dcbf40ac41cdf6fb16dcfc67acfbfa50",
          "topics": [
            "0xc7f505b2f371ae2175ee4913f4499e1f2633a7b5936321eed1cdaeb6115181d2"
          ],
          "data": "0x0000000000000000000000000000000000000000000000000000000000000001",
          "blockHash": "0xbdad064ce9125d37bd71bcd9df6fbd648efae53b74c8272cc43d8e8fcd6e24f4",
          "blockNumber": "0x6ca911",
          "blockTimestamp": "0x673ef8e1",
          "transactionHash": "0x9170327974481a322adc953981380065170a97ef72b6efab3d5ad1462268d0ff",
          "transactionIndex": "0x1",
          "logIndex": "0x11",
          "removed": false
        },
        {
          "address": "0xa21b90abccc937cf06e47ae20e52b9741771ec3c",
          "topics": [
            "0xdb2160616f776a37b24808115554e79439bf26cccbbd4438190cc6d28e80ecd1",
            "0x00000000000000000000000009a21c593f1521543b258f215f24f66761407223"
          ],
          "data": "0x",
          "blockHash": "0xbdad064ce9125d37bd71bcd9df6fbd648efae53b74c8272cc43d8e8fcd6e24f4",
          "blockNumber": "0x6ca911",
          "blockTimestamp": "0x673ef8e1",
          "transactionHash": "0x9170327974481a322adc953981380065170a97ef72b6efab3d5ad1462268d0ff",
          "transactionIndex": "0x1",
          "logIndex": "0x12",
          "removed": false
        },
        {
          "address": "0xa21b90abccc937cf06e47ae20e52b9741771ec3c",
          "topics": [
            "0xe7e4c932e03abddfe20f83af42c33627e816115c7ec2b168441f65dc14bfc3ba",
            "0x0000000000000000000000002a620975dcbf40ac41cdf6fb16dcfc67acfbfa50"
          ],
          "data": "0x",
          "blockHash": "0xbdad064ce9125d37bd71bcd9df6fbd648efae53b74c8272cc43d8e8fcd6e24f4",
          "blockNumber": "0x6ca911",
          "blockTimestamp": "0x673ef8e1",
          "transactionHash": "0x9170327974481a322adc953981380065170a97ef72b6efab3d5ad1462268d0ff",
          "transactionIndex": "0x1",
          "logIndex": "0x13",
          "removed": false
        }
      ],
      "logsBloom": "0x000000040100000800000000000000016000000100000000008000800000004000000800000000100008008000000000400000000000000000000000000000000000040082408208000020000010020010010000000000080000000000020000000004000200000040000001000008000000008000000001000000000010024000400000000000000108000000020000020008000a0080000001000012800000020000000000004000020000000000000000000000000020401020000080000000000020000000200000000000800000000400022404000100000000000020000020440000002800000090200002000020000000200000000000002008000000",
      "type": "0x2",
      "transactionHash": "0x9170327974481a322adc953981380065170a97ef72b6efab3d5ad1462268d0ff",
      "transactionIndex": "0x1",
      "blockHash": "0xbdad064ce9125d37bd71bcd9df6fbd648efae53b74c8272cc43d8e8fcd6e24f4",
      "blockNumber": "0x6ca911",
      "gasUsed": "0x11dfa1",
      "effectiveGasPrice": "0x12e41ffb5",
      "blobGasPrice": "0x6f",
      "from": "0xf39fd6e51aad88f6f4ce6ab8827279cfffb92266",
      "to": "0xcd02af2f4b659c35e409a4c67b2a7ea178a3d9f9",
      "contractAddress": null,
      "root": "0x0000000000000000000000000000000000000000000000000000000000000000"
    }
  ],
  "libraries": [],
  "pending": [],
  "returns": {},
  "timestamp": 1732180199,
  "chain": 11155111,
  "commit": "bf70695"
}