{
  "transactions": [
    {
      "hash": "0xa195fdb0fcb86931985ed260738f1bb0eb51ffc5b0fe7a4c96c52258019ef7d2",
      "transactionType": "CALL",
      "contractName": null,
      "contractAddress": "0x70c618a13d1a57f7234c0b893b9e28c5ca8e7f37",
      "function": "create((address,uint256,address,address,address))",
      "arguments": [
        "(0x752bE6f54dd71c31ef69C0C3D058a7b4Cd63fE50, 1000, 0x8Ae0F53A071F5036910509FE48eBB8b3558fa9fD, 0x8Ae0F53A071F5036910509FE48eBB8b3558fa9fD, 0x8Ae0F53A071F5036910509FE48eBB8b3558fa9fD)"
      ],
      "transaction": {
        "from": "0x8ae0f53a071f5036910509fe48ebb8b3558fa9fd",
        "to": "0x70c618a13d1a57f7234c0b893b9e28c5ca8e7f37",
        "gas": "0x6742c",
        "value": "0x0",
        "input": "0x61ca1df2000000000000000000000000752be6f54dd71c31ef69c0c3d058a7b4cd63fe5000000000000000000000000000000000000000000000000000000000000003e80000000000000000000000008ae0f53a071f5036910509fe48ebb8b3558fa9fd0000000000000000000000008ae0f53a071f5036910509fe48ebb8b3558fa9fd0000000000000000000000008ae0f53a071f5036910509fe48ebb8b3558fa9fd",
        "nonce": "0x2f",
        "chainId": "0xaa36a7"
      },
      "additionalContracts": [
        {
          "transactionType": "CREATE2",
          "address": "0x6679eb0e0958fd2e28bacaa7d9e5693c525cdc6d",
          "initCode": "0x3d602d80600a3d3981f3363d3d373d3d3d363d73c24095093dd6dfcf6601409e1ce1d417054a85505af43d82803e903d91602b57fd5bf3"
        }
      ],
      "isFixedGasLimit": false
    },
    {
      "hash": "0x0a1ede5d6078195be8e5f490019e67b42376d3c8e57d57b56f848e8821bded83",
      "transactionType": "CALL",
      "contractName": "DefaultOperatorRewardsFactory",
      "contractAddress": "0x8d6c873cb7ffa6be615ce1d55801a9417ed55f9b",
      "function": "create()",
      "arguments": [],
      "transaction": {
        "from": "0x8ae0f53a071f5036910509fe48ebb8b3558fa9fd",
        "to": "0x8d6c873cb7ffa6be615ce1d55801a9417ed55f9b",
        "gas": "0x2c03e",
        "value": "0x0",
        "input": "0xefc81a8c",
        "nonce": "0x30",
        "chainId": "0xaa36a7"
      },
      "additionalContracts": [
        {
          "transactionType": "CREATE2",
          "address": "0x4417db47b51e7802446c9e0a3e2f64e0cb485a99",
          "initCode": "0x3d602d80600a3d3981f3363d3d373d3d3d363d73df900211b4797adff8efe71891a76cacebfab0e95af43d82803e903d91602b57fd5bf3"
        }
      ],
      "isFixedGasLimit": false
    }
  ],
  "receipts": [
    {
      "status": "0x1",
      "cumulativeGasUsed": "0x10a533d",
      "logs": [
        {
          "address": "0x6679eb0e0958fd2e28bacaa7d9e5693c525cdc6d",
          "topics": [
            "0x2f8788117e7eff1d82e926ec794901d17c78024a50270940304540a733656f0d",
            "0x0000000000000000000000000000000000000000000000000000000000000000",
            "0x0000000000000000000000008ae0f53a071f5036910509fe48ebb8b3558fa9fd",
            "0x00000000000000000000000070c618a13d1a57f7234c0b893b9e28c5ca8e7f37"
          ],
          "data": "0x",
          "blockHash": "0x310e225306bc9a7fe39256f2c8b56f4dab8f49aad366c3eeaf4c794b20a13907",
          "blockNumber": "0x718666",
          "transactionHash": "0xa195fdb0fcb86931985ed260738f1bb0eb51ffc5b0fe7a4c96c52258019ef7d2",
          "transactionIndex": "0x7c",
          "logIndex": "0xc3",
          "removed": false
        },
        {
          "address": "0x6679eb0e0958fd2e28bacaa7d9e5693c525cdc6d",
          "topics": [
            "0x2f8788117e7eff1d82e926ec794901d17c78024a50270940304540a733656f0d",
            "0x723d93d9e2749ff76c3a02ca5d48d83735b6f451b126d0ba0683caa16e04c6fa",
            "0x0000000000000000000000008ae0f53a071f5036910509fe48ebb8b3558fa9fd",
            "0x00000000000000000000000070c618a13d1a57f7234c0b893b9e28c5ca8e7f37"
          ],
          "data": "0x",
          "blockHash": "0x310e225306bc9a7fe39256f2c8b56f4dab8f49aad366c3eeaf4c794b20a13907",
          "blockNumber": "0x718666",
          "transactionHash": "0xa195fdb0fcb86931985ed260738f1bb0eb51ffc5b0fe7a4c96c52258019ef7d2",
          "transactionIndex": "0x7c",
          "logIndex": "0xc4",
          "removed": false
        },
        {
          "address": "0x6679eb0e0958fd2e28bacaa7d9e5693c525cdc6d",
          "topics": [
            "0x2f8788117e7eff1d82e926ec794901d17c78024a50270940304540a733656f0d",
            "0xa2e85c2f0b3a0317b9c4b4185c12b4e23dd961a7645fcbc9bb8efb8eb70e0d03",
            "0x0000000000000000000000008ae0f53a071f5036910509fe48ebb8b3558fa9fd",
            "0x00000000000000000000000070c618a13d1a57f7234c0b893b9e28c5ca8e7f37"
          ],
          "data": "0x",
          "blockHash": "0x310e225306bc9a7fe39256f2c8b56f4dab8f49aad366c3eeaf4c794b20a13907",
          "blockNumber": "0x718666",
          "transactionHash": "0xa195fdb0fcb86931985ed260738f1bb0eb51ffc5b0fe7a4c96c52258019ef7d2",
          "transactionIndex": "0x7c",
          "logIndex": "0xc5",
          "removed": false
        },
        {
          "address": "0x6679eb0e0958fd2e28bacaa7d9e5693c525cdc6d",
          "topics": [
            "0xc7f505b2f371ae2175ee4913f4499e1f2633a7b5936321eed1cdaeb6115181d2"
          ],
          "data": "0x0000000000000000000000000000000000000000000000000000000000000001",
          "blockHash": "0x310e225306bc9a7fe39256f2c8b56f4dab8f49aad366c3eeaf4c794b20a13907",
          "blockNumber": "0x718666",
          "transactionHash": "0xa195fdb0fcb86931985ed260738f1bb0eb51ffc5b0fe7a4c96c52258019ef7d2",
          "transactionIndex": "0x7c",
          "logIndex": "0xc6",
          "removed": false
        },
        {
          "address": "0x70c618a13d1a57f7234c0b893b9e28c5ca8e7f37",
          "topics": [
            "0xb919910dcefbf753bfd926ab3b1d3f85d877190c3d01ba1bd585047b99b99f0b",
            "0x0000000000000000000000006679eb0e0958fd2e28bacaa7d9e5693c525cdc6d"
          ],
          "data": "0x",
          "blockHash": "0x310e225306bc9a7fe39256f2c8b56f4dab8f49aad366c3eeaf4c794b20a13907",
          "blockNumber": "0x718666",
          "transactionHash": "0xa195fdb0fcb86931985ed260738f1bb0eb51ffc5b0fe7a4c96c52258019ef7d2",
          "transactionIndex": "0x7c",
          "logIndex": "0xc7",
          "removed": false
        }
      ],
      "logsBloom": "0x00000004000000200000000000000000200000000000000000000000000000010400000004000010000002000000000000000000000000000000000000000000000000000000000000000000000000000000000000000000000020000020002000000000020000000000000000000800000000000000000000000000000000000000000000800000000802000000000000000000000080000000000000000000000000000000000002000000000000000000000000000000001000100008000000000000008800000000000000000000000000000804000100000000000020000000000000000800040080000000000000800000000000000000000000800002",
      "type": "0x2",
      "transactionHash": "0xa195fdb0fcb86931985ed260738f1bb0eb51ffc5b0fe7a4c96c52258019ef7d2",
      "transactionIndex": "0x7c",
      "blockHash": "0x310e225306bc9a7fe39256f2c8b56f4dab8f49aad366c3eeaf4c794b20a13907",
      "blockNumber": "0x718666",
      "gasUsed": "0x469b1",
      "effectiveGasPrice": "0x4f896487e",
      "from": "0x8ae0f53a071f5036910509fe48ebb8b3558fa9fd",
      "to": "0x70c618a13d1a57f7234c0b893b9e28c5ca8e7f37",
      "contractAddress": null
    },
    {
      "status": "0x1",
      "cumulativeGasUsed": "0x10c511a",
      "logs": [
        {
          "address": "0x8d6c873cb7ffa6be615ce1d55801a9417ed55f9b",
          "topics": [
            "0xb919910dcefbf753bfd926ab3b1d3f85d877190c3d01ba1bd585047b99b99f0b",
            "0x0000000000000000000000004417db47b51e7802446c9e0a3e2f64e0cb485a99"
          ],
          "data": "0x",
          "blockHash": "0x310e225306bc9a7fe39256f2c8b56f4dab8f49aad366c3eeaf4c794b20a13907",
          "blockNumber": "0x718666",
          "transactionHash": "0x0a1ede5d6078195be8e5f490019e67b42376d3c8e57d57b56f848e8821bded83",
          "transactionIndex": "0x7d",
          "logIndex": "0xc8",
          "removed": false
        }
      ],
      "logsBloom": "0x00000000000000000000000000000000200000000000000000000000000000000000000000000010000000000000000000000000000000000000000000000000000000000000000000000000000000000000000000000000000000000000000000000000000000002000000000000000000000000000000000000000000000000000000000000000000000000000001000000000000000000000000000000000000000000000000000002000000000000000000000000040000000000000000000000000000000000000000000000000000000002040000000000000000000000000000000000000000080000000000000000000000000000000000000000000",
      "type": "0x2",
      "transactionHash": "0x0a1ede5d6078195be8e5f490019e67b42376d3c8e57d57b56f848e8821bded83",
      "transactionIndex": "0x7d",
      "blockHash": "0x310e225306bc9a7fe39256f2c8b56f4dab8f49aad366c3eeaf4c794b20a13907",
      "blockNumber": "0x718666",
      "gasUsed": "0x1fddd",
      "effectiveGasPrice": "0x4f896487e",
      "from": "0x8ae0f53a071f5036910509fe48ebb8b3558fa9fd",
      "to": "0x8d6c873cb7ffa6be615ce1d55801a9417ed55f9b",
      "contractAddress": null
    }
  ],
  "libraries": [],
  "pending": [],
  "returns": {},
  "timestamp": 1736253674,
  "chain": 11155111,
  "commit": "de7c216"
}